{
  "transactions": [
    {
      "hash": "0xc11f43a9e7e844b5fa2ef8e457d596f3d66521794cfea7bf99ca26b55bbf8abd",
      "transactionType": "CALL",
      "contractName": null,
      "contractAddress": "0x4410355e143112e0619f822fc9ecf92aabd01b63",
      "function": "approve(address,uint256)",
      "arguments": [
        "0x2935645910f2773dc3f76A2Ec38594344618CF28",
        "5100218"
      ],
      "transaction": {
        "from": "0x5e310ba9a20fff37a8e8962789b7b459f511e7d2",
        "to": "0x4410355e143112e0619f822fc9ecf92aabd01b63",
        "gas": "0xf7d6",
        "value": "0x0",
        "input": "0x095ea7b30000000000000000000000002935645910f2773dc3f76a2ec38594344618cf2800000000000000000000000000000000000000000000000000000000004dd2ba",
        "nonce": "0x18",
        "chainId": "0x61"
      },
      "additionalContracts": [],
      "isFixedGasLimit": false
    },
    {
      "hash": "0x9ab49902b31d544baa52df1344d889d916db2651f12d6fa9a8800e915bbc177a",
      "transactionType": "CALL",
      "contractName": null,
      "contractAddress": "0x2935645910f2773dc3f76a2ec38594344618cf28",
      "function": "buy(uint8,uint256)",
      "arguments": [
        "0",
        "10000000000000000000"
      ],
      "transaction": {
        "from": "0x5e310ba9a20fff37a8e8962789b7b459f511e7d2",
        "to": "0x2935645910f2773dc3f76a2ec38594344618cf28",
        "gas": "0x3847d",
        "value": "0x0",
        "input": "0x62f791c000000000000000000000000000000000000000000000000000000000000000000000000000000000000000000000000000000000000000008ac7230489e80000",
        "nonce": "0x19",
        "chainId": "0x61"
      },
      "additionalContracts": [],
      "isFixedGasLimit": false
    },
    {
      "hash": "0x393a3d0aeedddc6a3da864a5ac4b9f4e65a674a1e22b63a042acb3a96c5f825a",
      "transactionType": "CALL",
      "contractName": null,
      "contractAddress": "0x2935645910f2773dc3f76a2ec38594344618cf28",
      "function": "sell(uint8,uint256)",
      "arguments": [
        "0",
        "5000000000000000000"
      ],
      "transaction": {
        "from": "0x5e310ba9a20fff37a8e8962789b7b459f511e7d2",
        "to": "0x2935645910f2773dc3f76a2ec38594344618cf28",
        "gas": "0x239b5",
        "value": "0x0",
        "input": "0xd9515e0b00000000000000000000000000000000000000000000000000000000000000000000000000000000000000000000000000000000000000004563918244f40000",
        "nonce": "0x1a",
        "chainId": "0x61"
      },
      "additionalContracts": [],
      "isFixedGasLimit": false
    }
  ],
  "receipts": [
    {
      "status": "0x1",
      "cumulativeGasUsed": "0xb36f",
      "logs": [
        {
          "address": "0x4410355e143112e0619f822fc9ecf92aabd01b63",
          "topics": [
            "0x8c5be1e5ebec7d5bd14f71427d1e84f3dd0314c0f7b2291e5b200ac8c7c3b925",
            "0x0000000000000000000000005e310ba9a20fff37a8e8962789b7b459f511e7d2",
            "0x0000000000000000000000002935645910f2773dc3f76a2ec38594344618cf28"
          ],
          "data": "0x00000000000000000000000000000000000000000000000000000000004dd2ba",
          "blockHash": "0xcb49392f3305081b5060ccb738c901efd7e2f586e703addbf78b0fed92b1eb18",
          "blockNumber": "0x42d192e",
          "transactionHash": "0xc11f43a9e7e844b5fa2ef8e457d596f3d66521794cfea7bf99ca26b55bbf8abd",
          "transactionIndex": "0x0",
          "logIndex": "0x0",
          "removed": false
        }
      ],
      "logsBloom": "0x00000000000000000000000000000004000000000000000000000000000000000000000000000000000000000000000000000000000000000000000000200000000000000000000000000000000000000000000000000000000000000000000000000000000000000000000400000000000000000000000000000000000000000000000100004000000000000000000000000000000000000020000000000002020000000000000000000000000000000000000000000000000004000000000000000000000000000200000000000000000000000000000000000000000000008010000000000000000000000000000000000000000000000000000000000000",
      "type": "0x2",
      "transactionHash": "0xc11f43a9e7e844b5fa2ef8e457d596f3d66521794cfea7bf99ca26b55bbf8abd",
      "transactionIndex": "0x0",
      "blockHash": "0xcb49392f3305081b5060ccb738c901efd7e2f586e703addbf78b0fed92b1eb18",
      "blockNumber": "0x42d192e",
      "gasUsed": "0xb36f",
      "effectiveGasPrice": "0x3b9aca00",
      "from": "0x5e310ba9a20fff37a8e8962789b7b459f511e7d2",
      "to": "0x4410355e143112e0619f822fc9ecf92aabd01b63",
      "contractAddress": null
    },
    {
      "status": "0x1",
      "cumulativeGasUsed": "0x33f5f",
      "logs": [
        {
          "address": "0x4410355e143112e0619f822fc9ecf92aabd01b63",
          "topics": [
            "0xddf252ad1be2c89b69c2b068fc378daa952ba7f163c4a11628f55a4df523b3ef",
            "0x0000000000000000000000005e310ba9a20fff37a8e8962789b7b459f511e7d2",
            "0x0000000000000000000000002935645910f2773dc3f76a2ec38594344618cf28"
          ],
          "data": "0x00000000000000000000000000000000000000000000000000000000004dd2ba",
          "blockHash": "0xcb49392f3305081b5060ccb738c901efd7e2f586e703addbf78b0fed92b1eb18",
          "blockNumber": "0x42d192e",
          "transactionHash": "0x9ab49902b31d544baa52df1344d889d916db2651f12d6fa9a8800e915bbc177a",
          "transactionIndex": "0x1",
          "logIndex": "0x1",
          "removed": false
        },
        {
          "address": "0x6fd2258e61bb5eedf5606eda7f70be06c5374f29",
          "topics": [
            "0xc3d58168c5ae7397731d063d5bbf3d657854427343f4c083240f7aacaa2d0f62",
            "0x0000000000000000000000002935645910f2773dc3f76a2ec38594344618cf28",
            "0x0000000000000000000000000000000000000000000000000000000000000000",
            "0x0000000000000000000000005e310ba9a20fff37a8e8962789b7b459f511e7d2"
          ],
          "data": "0x00000000000000000000000000000000000000000000000000000000000000000000000000000000000000000000000000000000000000008ac7230489e80000",
          "blockHash": "0xcb49392f3305081b5060ccb738c901efd7e2f586e703addbf78b0fed92b1eb18",
          "blockNumber": "0x42d192e",
          "transactionHash": "0x9ab49902b31d544baa52df1344d889d916db2651f12d6fa9a8800e915bbc177a",
          "transactionIndex": "0x1",
          "logIndex": "0x2",
          "removed": false
        },
        {
          "address": "0x2935645910f2773dc3f76a2ec38594344618cf28",
          "topics": [
            "0xe8f58e3faf4cfb9e9f5bb8a5bb97dc5c362e97b4665aec0f218f17c3c44a5b6e",
            "0x0000000000000000000000005e310ba9a20fff37a8e8962789b7b459f511e7d2",
            "0x0000000000000000000000000000000000000000000000000000000000000000"
          ],
          "data": "0x0000000000000000000000000000000000000000000000008ac7230489e8000000000000000000000000000000000000000000000000000000000000004c7c1300000000000000000000000000000000000000000000000000000000000156a6",
          "blockHash": "0xcb49392f3305081b5060ccb738c901efd7e2f586e703addbf78b0fed92b1eb18",
          "blockNumber": "0x42d192e",
          "transactionHash": "0x9ab49902b31d544baa52df1344d889d916db2651f12d6fa9a8800e915bbc177a",
          "transactionIndex": "0x1",
          "logIndex": "0x3",
          "removed": false
        }
      ],
      "logsBloom": "0x00000000000000000000040000000004000000000000000000000000000000000800000000000000000000000000000000000000000000000000000000002000000000000000000000000008000000000000000000000000004000000000000000000000020000000000000400000800000000000000000000000010000000000000000100004008000000000000000000000000000000000020000000000002000000000000000000000000000000000000000000000000000004000000000000000002004000000200000000400000000000000008001000000000000020008000000000000000000000000000000000002040000000000000080000000000",
      "type": "0x2",
      "transactionHash": "0x9ab49902b31d544baa52df1344d889d916db2651f12d6fa9a8800e915bbc177a",
      "transactionIndex": "0x1",
      "blockHash": "0xcb49392f3305081b5060ccb738c901efd7e2f586e703addbf78b0fed92b1eb18",
      "blockNumber": "0x42d192e",
      "gasUsed": "0x28bf0",
      "effectiveGasPrice": "0x3b9aca00",
      "from": "0x5e310ba9a20fff37a8e8962789b7b459f511e7d2",
      "to": "0x2935645910f2773dc3f76a2ec38594344618cf28",
      "contractAddress": null
    },
    {
      "status": "0x1",
      "cumulativeGasUsed": "0x4dbd5",
      "logs": [
        {
          "address": "0x6fd2258e61bb5eedf5606eda7f70be06c5374f29",
          "topics": [
            "0xc3d58168c5ae7397731d063d5bbf3d657854427343f4c083240f7aacaa2d0f62",
            "0x0000000000000000000000002935645910f2773dc3f76a2ec38594344618cf28",
            "0x0000000000000000000000005e310ba9a20fff37a8e8962789b7b459f511e7d2",
            "0x0000000000000000000000000000000000000000000000000000000000000000"
          ],
          "data": "0x00000000000000000000000000000000000000000000000000000000000000000000000000000000000000000000000000000000000000004563918244f40000",
          "blockHash": "0xcb49392f3305081b5060ccb738c901efd7e2f586e703addbf78b0fed92b1eb18",
          "blockNumber": "0x42d192e",
          "transactionHash": "0x393a3d0aeedddc6a3da864a5ac4b9f4e65a674a1e22b63a042acb3a96c5f825a",
          "transactionIndex": "0x2",
          "logIndex": "0x4",
          "removed": false
        },
        {
          "address": "0x4410355e143112e0619f822fc9ecf92aabd01b63",
          "topics": [
            "0xddf252ad1be2c89b69c2b068fc378daa952ba7f163c4a11628f55a4df523b3ef",
            "0x0000000000000000000000002935645910f2773dc3f76a2ec38594344618cf28",
            "0x0000000000000000000000005e310ba9a20fff37a8e8962789b7b459f511e7d2"
          ],
          "data": "0x0000000000000000000000000000000000000000000000000000000000259eb4",
          "blockHash": "0xcb49392f3305081b5060ccb738c901efd7e2f586e703addbf78b0fed92b1eb18",
          "blockNumber": "0x42d192e",
          "transactionHash": "0x393a3d0aeedddc6a3da864a5ac4b9f4e65a674a1e22b63a042acb3a96c5f825a",
          "transactionIndex": "0x2",
          "logIndex": "0x5",
          "removed": false
        },
        {
          "address": "0x2935645910f2773dc3f76a2ec38594344618cf28",
          "topics": [
            "0xbccc64d1e1249878358bdb2025e5d01726533249b0c0c0add15ee627fd6a5363",
            "0x0000000000000000000000005e310ba9a20fff37a8e8962789b7b459f511e7d2",
            "0x0000000000000000000000000000000000000000000000000000000000000000"
          ],
          "data": "0x0000000000000000000000000000000000000000000000004563918244f400000000000000000000000000000000000000000000000000000000000000259eb4000000000000000000000000000000000000000000000000000000000000ab8a",
          "blockHash": "0xcb49392f3305081b5060ccb738c901efd7e2f586e703addbf78b0fed92b1eb18",
          "blockNumber": "0x42d192e",
          "transactionHash": "0x393a3d0aeedddc6a3da864a5ac4b9f4e65a674a1e22b63a042acb3a96c5f825a",
          "transactionIndex": "0x2",
          "logIndex": "0x6",
          "removed": false
        }
      ],
      "logsBloom": "0x00000000000000000000000000000004000000000000000000000000000000000800000000000000000000000000000000000000004000000000000000002000000000000000000000000008000000000000000000000000004020000000000000000000020000000040000400000800000000000000000000000010000000000000000100004008000000000000000000000000000000000020000000000002000000000000000000000000000000000000000000000000000004000000000000000002004000000200000000000000000000000008000000000000000020008000000000000000000000000000000000002040000000000000080000000000",
      "type": "0x2",
      "transactionHash": "0x393a3d0aeedddc6a3da864a5ac4b9f4e65a674a1e22b63a042acb3a96c5f825a",
      "transactionIndex": "0x2",
      "blockHash": "0xcb49392f3305081b5060ccb738c901efd7e2f586e703addbf78b0fed92b1eb18",
      "blockNumber": "0x42d192e",
      "gasUsed": "0x19c76",
      "effectiveGasPrice": "0x3b9aca00",
      "from": "0x5e310ba9a20fff37a8e8962789b7b459f511e7d2",
      "to": "0x2935645910f2773dc3f76a2ec38594344618cf28",
      "contractAddress": null
    }
  ],
  "libraries": [],
  "pending": [],
  "returns": {},
  "timestamp": 1761394472487,
  "chain": 97,
  "commit": "f16a3d5"
}